:100000000C942A000C94F3000C94F3000C94F3006D
:100010000C94F3000C94F3000C94F3000C94F30094
:100020000C94F3000C94F3000C94F3000C94F30084
:100030000C94F3000C94F3000C94F3000C94F30074
:100040000C94F3000C94F3000C94F3000C94F30064
:100050000C94F30011241FBECFE5D8E0DEBFCDBF66
:0C0060000E946E000C943400F894FFCF56
:10006C00813091F028F0823039F18330C9F0089555
:10007C002AB381E090E002C0880F991F6A95E2F7DD
:10008C00809582238ABB089527B381E090E002C05B
:10009C00880F991F6A95E2F78095822387BB089594
:1000AC0021B381E090E002C0880F991F6A95E2F7B6
:1000BC008095822381BB089524B381E090E002C037
:1000CC00880F991F6A95E2F78095822384BB089567
:1000DC0080E00E94CF0060E082E00E94360066E083
:1000EC0083E00E94360080E00E94E30060E082E042
:1000FC000E94A100882361F08BB38F5F8BBB2FEF25
:10010C0089E698E1215080409040E1F700C0000062
:10011C0066E083E00E94A100882341F38BB38150F9
:10012C008BBB2FEF89E698E1215080409040E1F79E
:06013C0000C00000DBCF53
:10014200813079F028F08230A9F08330E1F024C0C8
:1001520089B390E002C0959587956A95E2F7817020
:10016200089586B390E002C0959587956A95E2F767
:100172008170089583B390E002C0959587956A9542
:10018200E2F78170089580B390E002C0959587955B
:0C0192006A95E2F78170089580E00895FE
:10019E00813049F028F0823061F0833039F00895D3
:1001AE008FEF8ABB08958FEF87BB08958FEF81BBCA
:0801BE0008958FEF84BB089542
:1001C600813041F028F0823049F0833029F00895DB
:1001D6001BBA089518BA089512BA089515BA089563
:0401E6000C94000075
:00000001FF
