:100000000C942A000C9451000C9451000C94510053
:100010000C9451000C9451000C9451000C9451001C
:100020000C9451000C9451000C9451000C9451000C
:100030000C9451000C9451000C9451000C945100FC
:100040000C9451000C9451000C9451000C945100EC
:100050000C94510011241FBECFE5D8E0DEBFCDBF08
:0C0060000E9445000C943400F894FFCF7F
:10006C00882351F087B3806B87BB8DB180658DB9C8
:0E007C008DB183608DB90895BE9A6E9A089575
:10008A0060E081E00E94360081E40E944D00FCCFCE
:08009A008FB9779BFECF08959A
:0400A2000C940000BA
:00000001FF
