:100000000C9430000C946E010C94A4020C94A40285
:100010000C94A4020C94A4020C94A4020C94A402C8
:100020000C94A4020C94A4020C94A4020C94A402B8
:100030000C94A4020C94A4020C94A4020C94A402A8
:100040000C94A4020C94A4020C94A4020C94A40298
:100050000C94A4020060006B00054C006B006C80E7
:1000600011241FBECFE5D8E0DEBFCDBFE4E5F0E050
:1000700040E017C0B591A59135912591059107FDF7
:100080000CC095918591EF01F92FE82F05900D9205
:10009000A217B307D9F7FE0104C01D92A217B30738
:1000A000E1F7E036F40731F70E9443020C94580060
:0400B000F894FFCFF2
:1000B40080E00E942F0261E081E00E94060162E07C
:1000C40081E00E9406018FE19EE40197F1F700C0F0
:1000D400000062E081E00E94CE0063E081E00E94C3
:1000E40006018FE19EE40197F1F700C0000063E090
:1000F40081E00E94CE0082E00E94FE0181E00E9425
:10010400FE0186E00E94FE0188E20E94FE018CE06E
:100114000E94FE019FEF20E782E091502040804042
:08012400E1F700C0000008959E
:10012C00813091F028F0823039F18330C9F0089594
:10013C002AB381E090E002C0880F991F6A95E2F71C
:10014C00809582238ABB089527B381E090E002C09A
:10015C00880F991F6A95E2F78095822387BB0895D3
:10016C0021B381E090E002C0880F991F6A95E2F7F5
:10017C008095822381BB089524B381E090E002C076
:10018C00880F991F6A95E2F78095822384BB0895A6
:10019C00813091F028F08230D9F0833029F1089524
:1001AC002BB381E090E002C0880F991F6A95E2F7AB
:1001BC00809582238BBB089528B381E090E002C028
:1001CC00880F991F6A95E2F78095822388BB089562
:1001DC0025B381E090E002C0880F991F6A95E2F781
:1001EC008095822385BB089522B381E090E002C004
:1001FC00880F991F6A95E2F78095822382BB089538
:10020C00813089F028F08230C9F0833011F10895E3
:10021C002AB381E090E002C0880F991F6A95E2F73B
:10022C00822B8ABB089527B381E090E002C0880F2F
:10023C00991F6A95E2F7822B87BB089524B381E05E
:10024C0090E002C0880F991F6A95E2F7822B84BB5D
:10025C00089521B381E090E002C0880F991F6A9540
:08026C00E2F7822B81BB08952B
:10027400813089F028F08230C9F0833011F108957B
:100284002BB381E090E002C0880F991F6A95E2F7D2
:10029400822B8BBB089528B381E090E002C0880FC5
:1002A400991F6A95E2F7822B88BB089525B381E0F4
:1002B40090E002C0880F991F6A95E2F7822B85BBF4
:1002C400089522B381E090E002C0880F991F6A95D7
:0802D400E2F7822B82BB0895C2
:1002DC001F920F920FB60F9211242F933F934F93AF
:1002EC005F936F937F938F939F93AF93BF93EF9392
:1002FC00FF930E94A00280E690E00E946302FF91AF
:10030C00EF91BF91AF919F918F917F916F915F9181
:10031C004F913F912F910F900FBE0F901F901895FA
:10032C00833099F018F4823031F00895873041F021
:10033C008A3081F0089562E082E00E94CE00089538
:10034C0067E082E00E94CE00089563E083E00E94A3
:10035C00CE00089562E082E00E94CE0067E082E069
:0E036C000E94CE0063E083E00E94CE00089560
:10037A00813099F0C8F0823049F08330D9F485B7DA
:10038A00816085BF85B7826085BF14C085B78E7FBF
:10039A0085BF85B7826085BF0DC085B7816085BF7F
:1003AA0085B78D7F85BF06C085B78E7F85BF85B728
:0C03BA008D7F85BF8BB780648BBF0895DA
:1003C600CF93C82F61E081E00E943A018BB38F7012
:1003D6009C2F907F892B8BBB0E9454028BB3282FB6
:1003E6002F7030E1C39FC0011124822B8BBB0E946A
:0603F6005402CF910895AE
:1003FC00CF93C82F61E081E00E94CE008BB38F7049
:10040C009C2F907F892B8BBB0E9454028BB3282F7F
:10041C002F7030E1C39FC0011124822B8BBB0E9433
:06042C005402CF91089577
:1004320062E082E00E94060167E082E00E9406011B
:1004420063E083E00E94060182E00E94960187E059
:0C0452000E94960183E00E94960108952C
:10045E00813049F028F0823061F0833039F0089510
:10046E008FEF8ABB08958FEF87BB08958FEF81BB07
:08047E0008958FEF84BB08957F
:100486000E947F020E945A0081E00E94BD0178947A
:1004960080916B0091E0980F90936B000E94E301AE
:0204A600F7CF8E
:1004A80063E081E00E943A018FE39CE90197F1F74C
:0E04B80000C0000063E081E00E94CE000895C5
:1004C600CF93DF93EC018881882331F021960E9437
:0E04D600E30189918111FBCFDF91CF91089551
:1004E40060E081E00E94960066E083E00E9496004E
:0A04F40062E083E00E949600089584
:1004FE000E9472020E9419020E9488020E948F02BC
:02050E0008954E
:0E05100063E080E00E9406010E9496020895BA
:0E051E0062E080E00E9406010E949B020895A8
:0A052C0063E080E00E94CE00089515
:0A05360062E080E00E94CE0008950C
:0805400081E00E94FE01089514
:040548000C9400000F
:0B054C00494E5430206973204F4E00D0
:00000001FF
