:100000000C942A000C943F000C943F000C943F0089
:100010000C943F000C943F000C943F000C943F0064
:100020000C943F000C943F000C943F000C943F0054
:100030000C943F000C943F000C943F000C943F0044
:100040000C943F000C943F000C943F000C943F0034
:100050000C943F0011241FBECFE5D8E0DEBFCDBF1A
:0C0060000E9436000C943400F894FFCF8E
:10006C00D09AA098D898989B02C0D89AFCCFD898D0
:02007C00FACFB9
:04007E000C940000DE
:00000001FF
