:100000000C942A000C9413020C9413020C94130207
:100010000C9413020C9413020C9413020C9413020C
:100020000C9413020C9413020C9413020C941302FC
:100030000C9413020C9413020C9413020C941302EC
:100040000C9413020C9413020C9413020C941302DC
:100050000C94130211241FBECFE5D8E0DEBFCDBF44
:0C0060000E9412010C943400F894FFCFB1
:10006C0080E00E94A90161E081E00E94AA0062E0A8
:10007C0081E00E94AA008FE19EE40197F1F700C095
:10008C00000062E081E00E94720063E081E00E9467
:10009C00AA008FE19EE40197F1F700C0000063E035
:1000AC0081E00E94720082E00E94740181E00E9453
:1000BC00740186E00E94740188E20E9474018CE055
:1000CC000E9474019FEF20E782E091502040804015
:0800DC00E1F700C000000895E7
:1000E400813091F028F08230D9F0833029F10895DD
:1000F4002BB381E090E002C0880F991F6A95E2F764
:10010400809582238BBB089528B381E090E002C0E0
:10011400880F991F6A95E2F78095822388BB08951A
:1001240025B381E090E002C0880F991F6A95E2F739
:100134008095822385BB089522B381E090E002C0BC
:10014400880F991F6A95E2F78095822382BB0895F0
:10015400813089F028F08230C9F0833011F108959C
:100164002AB381E090E002C0880F991F6A95E2F7F4
:10017400822B8ABB089527B381E090E002C0880FE8
:10018400991F6A95E2F7822B87BB089524B381E017
:1001940090E002C0880F991F6A95E2F7822B84BB16
:1001A400089521B381E090E002C0880F991F6A95F9
:0801B400E2F7822B81BB0895E4
:1001BC00813089F028F08230C9F0833011F1089534
:1001CC002BB381E090E002C0880F991F6A95E2F78B
:1001DC00822B8BBB089528B381E090E002C0880F7E
:1001EC00991F6A95E2F7822B88BB089525B381E0AD
:1001FC0090E002C0880F991F6A95E2F7822B85BBAD
:10020C00089522B381E090E002C0880F991F6A958F
:08021C00E2F7822B82BB08957A
:100224000E94360081E00E94010281E00E94EB01FD
:1002340087E00E9408020E9415020E941702349B64
:10024400FECFC4B185B1D0E0D82B0E940F02CE01FD
:100254000E943C0187E20E94590183E40E945901F3
:100264002FEF80E792E0215080409040E1F700C0FA
:040274000000E3CFD4
:10027800CF93DF93CDB7DEB72B970FB6F894DEBFD9
:100288000FBECDBF4AE0BE016F5F7F4F0E94F601EF
:10029800CE0101960E94DC012B960FB6F894DEBFC2
:0A02A8000FBECDBFDF91CF91089586
:1002B200CF93C82F61E081E00E94DE008BB38F7084
:1002C2009C2F907F892B8BBB0E94CD018BB3282F53
:1002D2002F7030E1C39FC0011124822B8BBB0E947F
:0602E200CD01CF9108954B
:1002E800CF93C82F61E081E00E9472008BB38F70BA
:1002F8009C2F907F892B8BBB0E94CD018BB3282F1D
:100308002F7030E1C39FC0011124822B8BBB0E9448
:06031800CD01CF91089514
:10031E00BB27FB015527AA27880F991FAA1FA417D1
:10032E0010F0A41B83955051B9F7A05DAA3308F0C5
:10033E00A95DA193009779F7B111B1931192CB01F9
:04034E000C94BD014D
:10035200813049F028F0823061F0833039F008951D
:100362008FEF8ABB08958FEF87BB08958FEF81BB14
:0803720008958FEF84BB08958C
:10037A00DC01FC01672F71917723E1F7329704C002
:10038A007C916D9370836291AE17BF07C8F308958D
:10039A0063E081E00E94DE008FE39CE90197F1F7B8
:0E03AA0000C0000063E081E00E947200089530
:1003B800CF93DF93EC018881882331F021960E9446
:0E03C800590189918111FBCFDF91CF910895EA
:1003D60097B19F7397B927B130E4839FC001112469
:0603E600822B87B9089587
:1003EC00BB274A3031F4992322F4BDE290958195D4
:0603FC009F4F0C949001DC
:0E04020097B1907E97B997B1892B87B908956D
:0E04100096B1987F96B996B1892B86B908955A
:08041E0081E00E9474010895C1
:040426000C94000032
:04042A00379A089560
:04042E00369A08955D
:00000001FF
