:100000000C942A000C9489010C9489010C948901A8
:100010000C9489010C9489010C9489010C94890138
:100020000C9489010C9489010C9489010C94890128
:100030000C9489010C9489010C9489010C94890118
:100040000C9489010C9489010C9489010C94890108
:100050000C94890111241FBECFE5D8E0DEBFCDBFCF
:0C0060000E9436000C943400F894FFCF8E
:10006C0080E00E94650160E082E00E94930066E0FF
:10007C0083E00E94930080E00E94790160E082E0BE
:10008C000E943701882389F060E080E00E94030120
:10009C0061E080E00E94030162E080E00E940301C5
:1000AC0063E080E00E94030110C060E080E00E94E9
:1000BC00CB0061E080E00E94CB0062E080E00E9417
:1000CC00CB0063E080E00E94CB0066E083E00E94FE
:1000DC003701882389F064E080E00E94030165E029
:1000EC0080E00E94030166E080E00E94030167E06B
:1000FC0080E00E940301C2CF64E080E00E94CB004C
:10010C0065E080E00E94CB0066E080E00E94CB00BE
:0A011C0067E080E00E94CB00B1CF45
:10012600813091F028F0823039F18330C9F008959A
:100136002AB381E090E002C0880F991F6A95E2F722
:10014600809582238ABB089527B381E090E002C0A0
:10015600880F991F6A95E2F78095822387BB0895D9
:1001660021B381E090E002C0880F991F6A95E2F7FB
:100176008095822381BB089524B381E090E002C07C
:10018600880F991F6A95E2F78095822384BB0895AC
:10019600813091F028F08230D9F0833029F108952A
:1001A6002BB381E090E002C0880F991F6A95E2F7B1
:1001B600809582238BBB089528B381E090E002C02E
:1001C600880F991F6A95E2F78095822388BB089568
:1001D60025B381E090E002C0880F991F6A95E2F787
:1001E6008095822385BB089522B381E090E002C00A
:1001F600880F991F6A95E2F78095822382BB08953E
:10020600813089F028F08230C9F0833011F10895E9
:100216002BB381E090E002C0880F991F6A95E2F740
:10022600822B8BBB089528B381E090E002C0880F33
:10023600991F6A95E2F7822B88BB089525B381E062
:1002460090E002C0880F991F6A95E2F7822B85BB62
:10025600089522B381E090E002C0880F991F6A9545
:08026600E2F7822B82BB089530
:10026E00813079F028F08230A9F08330E1F024C09B
:10027E0089B390E002C0959587956A95E2F78170F3
:10028E00089586B390E002C0959587956A95E2F73A
:10029E008170089583B390E002C0959587956A9515
:1002AE00E2F78170089580B390E002C0959587952E
:0C02BE006A95E2F78170089580E00895D1
:1002CA00813049F028F0823061F0833039F00895A6
:1002DA008FEF8ABB08958FEF87BB08958FEF81BB9D
:0802EA0008958FEF84BB089515
:1002F200813041F028F0823049F0833029F00895AE
:100302001BBA089518BA089512BA089515BA089535
:040312000C94000047
:00000001FF
