:100000000C9430000C9433010C9448020C94480278
:100010000C9448020C9448020C9448020C94480238
:100020000C9448020C9448020C9448020C94480228
:100030000C9448020C9448020C9448020C94480218
:100040000C9448020C9448020C9448020C94480208
:100050000C9448020060006B000494006B006C80FC
:1000600011241FBECFE5D8E0DEBFCDBFE4E5F0E050
:1000700040E017C0B591A59135912591059107FDF7
:100080000CC095918591EF01F92FE82F05900D9205
:10009000A217B307D9F7FE0104C01D92A217B30738
:1000A000E1F7E036F40731F70E94B8010C945800EC
:0400B000F894FFCFF2
:1000B40080E00E94DC0161E081E00E94CB0062E00C
:1000C40081E00E94CB008FE19EE40197F1F700C02C
:1000D400000062E081E00E94930063E081E00E94FE
:1000E400CB008FE19EE40197F1F700C0000063E0CC
:1000F40081E00E94930088E30E94390281E00E941B
:10010400390286E00E9439028CE00E9439029FEF96
:1001140020E782E0915020408040E1F700C00000D9
:0201240008953C
:10012600813091F028F08230D9F0833029F108959A
:100136002BB381E090E002C0880F991F6A95E2F721
:10014600809582238BBB089528B381E090E002C09E
:10015600880F991F6A95E2F78095822388BB0895D8
:1001660025B381E090E002C0880F991F6A95E2F7F7
:100176008095822385BB089522B381E090E002C07A
:10018600880F991F6A95E2F78095822382BB0895AE
:10019600813089F028F08230C9F0833011F108955A
:1001A6002AB381E090E002C0880F991F6A95E2F7B2
:1001B600822B8ABB089527B381E090E002C0880FA6
:1001C600991F6A95E2F7822B87BB089524B381E0D5
:1001D60090E002C0880F991F6A95E2F7822B84BBD4
:1001E600089521B381E090E002C0880F991F6A95B7
:0801F600E2F7822B81BB0895A2
:1001FE00813089F028F08230C9F0833011F10895F2
:10020E002BB381E090E002C0880F991F6A95E2F748
:10021E00822B8BBB089528B381E090E002C0880F3B
:10022E00991F6A95E2F7822B88BB089525B381E06A
:10023E0090E002C0880F991F6A95E2F7822B85BB6A
:10024E00089522B381E090E002C0880F991F6A954D
:08025E00E2F7822B82BB089538
:100266001F920F920FB60F9211242F933F934F9325
:100276005F936F937F938F939F93AF93BF93EF9308
:10028600FF930E94440280E690E00E941F022FEF37
:1002960089E698E1215080409040E1F700C00000D7
:1002A600FF91EF91BF91AF919F918F917F916F9148
:1002B6005F914F913F912F910F900FBE0F901F901E
:0202C600189589
:1002C800813079F028F08230A9F08330E1F024C041
:1002D80089B390E002C0959587956A95E2F7817099
:1002E800089586B390E002C0959587956A95E2F7E0
:1002F8008170089583B390E002C0959587956A95BB
:10030800E2F78170089580B390E002C095958795D3
:0C0318006A95E2F78170089580E0089576
:10032400813099F0C8F0823049F08330D9F485B730
:10033400816085BF85B7826085BF14C085B78E7F15
:1003440085BF85B7826085BF0DC085B7816085BFD5
:1003540085B78D7F85BF06C085B78E7F85BF85B77E
:0C0364008D7F85BF8BB780648BBF089530
:100370000E945A0082E00E94F00183E00E94DC01AA
:1003800081E00E949201789460E082E00E94640122
:10039000882329F060E083E00E94FF0004C060E051
:1003A00083E00E94930080916B0091E0980F9093FE
:0803B0006B000E942E02F7CF42
:1003B800813049F028F0823061F0833039F00895B7
:1003C8008FEF8ABB08958FEF87BB08958FEF81BBAE
:0803D80008958FEF84BB089526
:1003E000813041F028F0823049F0833029F00895BF
:1003F0001ABA089517BA089511BA089514BA08954B
:10040000813041F028F0823049F0833029F008959E
:100410006BBB089568BB089562BB089565BB0895E2
:1004200063E081E00E94FF008FE39CE90197F1F710
:0E04300000C0000063E081E00E949300089588
:10043E00CF93DF93EC018881882331F021960E94BF
:0E044E002E0289918111FBCFDF91CF9108958D
:10045C00682F80E00E94000261E081E00E94FF00B2
:06046C000E941002089539
:10047200682F80E00E94000261E081E00E94930008
:060482000E941002089523
:0804880081E00E943902089591
:040490000C940000C8
:0B049400494E5430206973204F4E0089
:00000001FF
