:100000000C942A000C940C020C940C020C940C021C
:100010000C940C020C940C020C940C020C940C0228
:100020000C940C020C940C020C940C020C940C0218
:100030000C940C020C940C020C940C020C940C0208
:100040000C940C020C940C020C940C020C940C02F8
:100050000C940C0211241FBECFE5D8E0DEBFCDBF4B
:0C0060000E948A010C943400F894FFCF39
:10006C00813091F028F0823039F18330C9F0089555
:10007C002AB381E090E002C0880F991F6A95E2F7DD
:10008C00809582238ABB089527B381E090E002C05B
:10009C00880F991F6A95E2F78095822387BB089594
:1000AC0021B381E090E002C0880F991F6A95E2F7B6
:1000BC008095822381BB089524B381E090E002C037
:1000CC00880F991F6A95E2F78095822384BB089567
:1000DC00813091F028F08230D9F0833029F10895E5
:1000EC002BB381E090E002C0880F991F6A95E2F76C
:1000FC00809582238BBB089528B381E090E002C0E9
:10010C00880F991F6A95E2F78095822388BB089522
:10011C0025B381E090E002C0880F991F6A95E2F741
:10012C008095822385BB089522B381E090E002C0C4
:10013C00880F991F6A95E2F78095822382BB0895F8
:10014C00813089F028F08230C9F0833011F10895A4
:10015C002AB381E090E002C0880F991F6A95E2F7FC
:10016C00822B8ABB089527B381E090E002C0880FF0
:10017C00991F6A95E2F7822B87BB089524B381E01F
:10018C0090E002C0880F991F6A95E2F7822B84BB1E
:10019C00089521B381E090E002C0880F991F6A9501
:0801AC00E2F7822B81BB0895EC
:1001B400813089F028F08230C9F0833011F108953C
:1001C4002BB381E090E002C0880F991F6A95E2F793
:1001D400822B8BBB089528B381E090E002C0880F86
:1001E400991F6A95E2F7822B88BB089525B381E0B5
:1001F40090E002C0880F991F6A95E2F7822B85BBB5
:10020400089522B381E090E002C0880F991F6A9597
:08021400E2F7822B82BB089582
:10021C00813079F028F08230A9F08330E1F024C0ED
:10022C0089B390E002C0959587956A95E2F7817045
:10023C00089586B390E002C0959587956A95E2F78C
:10024C008170089583B390E002C0959587956A9567
:10025C00E2F78170089580B390E002C09595879580
:0C026C006A95E2F78170089580E0089523
:10027800833099F018F4823031F00895873041F0D6
:100288008A3081F0089562E082E00E94DA000895E1
:1002980067E082E00E94DA00089563E083E00E944C
:1002A800DA00089562E082E00E94DA0067E082E006
:0E02B8000E94DA0063E083E00E94DA000895FD
:1002C600833099F018F4823031F00895873041F088
:1002D6008A3081F0089562E082E00E946E000895FF
:1002E60067E082E00E946E00089563E083E00E946A
:1002F6006E00089562E082E00E946E0067E082E090
:0E0306000E946E0063E083E00E946E00089586
:100314000E94EB0180E00E94B101882321F082E079
:100324000E943C0103C082E00E94630186E00E94B7
:10033400B101882321F087E00E943C0103C087E0DB
:100344000E94630182E00E94B101882321F083E0CE
:0E0354000E943C01DFCF83E00E946301DBCFFB
:10036200823071F0863039F081110FC060E081E097
:100372000E940E01089566E083E00E940E01089536
:0E03820062E083E00E940E01089580E008957D
:1003900062E082E00E94A60067E082E00E94A60080
:1003A00063E083E00E94A60082E00E94630187E090
:0C03B0000E94630183E00E946301089535
:1003BC0060E081E00E94360066E083E00E94360037
:0A03CC0062E083E00E94360008950D
:1003D6000E94DE010E94C8010E94F4010E94FB01F6
:0203E600089578
:0E03E80063E080E00E94A6000E9402020895D9
:0E03F60062E080E00E94A6000E9407020895C7
:0A04040063E080E00E946E0008959E
:0A040E0062E080E00E946E00089595
:040418000C94000040
:00000001FF
