:100000000C942A000C9421020C9421020C942102DD
:100010000C9421020C9421020C9421020C942102D4
:100020000C9421020C9421020C94CE010C94210218
:100030000C9421020C9421020C9421020C942102B4
:100040000C9421020C9421020C9421020C942102A4
:100050000C94210211241FBECFE5D8E0DEBFCDBF36
:0C0060000E9436000C943400F894FFCF8E
:10006C0080E00E94BA010E94F50163E081E00E94E9
:10007C00E00081E00E94690181E00E94EA018FE7C3
:10008C008CBF0E941D0285E00E94FE01789482E0E4
:10009C000E948D01882361F08CB7865F8CBF2FEF97
:1000AC0089E698E1215080409040E1F700C00000C3
:1000BC0086E00E948D01882351F38CB78A508CBF47
:1000CC002FEF89E698E1215080409040E1F700C085
:0400DC000000DDCF74
:1000E000813091F028F0823039F18330C9F00895E1
:1000F0002AB381E090E002C0880F991F6A95E2F769
:10010000809582238ABB089527B381E090E002C0E6
:10011000880F991F6A95E2F78095822387BB08951F
:1001200021B381E090E002C0880F991F6A95E2F741
:100130008095822381BB089524B381E090E002C0C2
:10014000880F991F6A95E2F78095822384BB0895F2
:10015000813091F028F08230D9F0833029F1089570
:100160002BB381E090E002C0880F991F6A95E2F7F7
:10017000809582238BBB089528B381E090E002C074
:10018000880F991F6A95E2F78095822388BB0895AE
:1001900025B381E090E002C0880F991F6A95E2F7CD
:1001A0008095822385BB089522B381E090E002C050
:1001B000880F991F6A95E2F78095822382BB089584
:1001C000813089F028F08230C9F0833011F1089530
:1001D0002AB381E090E002C0880F991F6A95E2F788
:1001E000822B8ABB089527B381E090E002C0880F7C
:1001F000991F6A95E2F7822B87BB089524B381E0AB
:1002000090E002C0880F991F6A95E2F7822B84BBA9
:10021000089521B381E090E002C0880F991F6A958C
:08022000E2F7822B81BB089577
:10022800813079F028F08230A9F08330E1F024C0E1
:1002380089B390E002C0959587956A95E2F7817039
:10024800089586B390E002C0959587956A95E2F780
:100258008170089583B390E002C0959587956A955B
:10026800E2F78170089580B390E002C09595879574
:0C0278006A95E2F78170089580E0089517
:10028400833099F018F4823031F00895873041F0CA
:100294008A3081F0089562E082E00E94A800089507
:1002A40067E082E00E94A800089563E083E00E9472
:1002B400A800089562E082E00E94A80067E082E05E
:0E02C4000E94A80063E083E00E94A800089555
:1002D200813069F028F0823089F08330B1F00895DE
:1002E20083B78F7B83BF83B7877F83BF089583B72D
:1002F2008F7B83BF83B7886083BF089583B7806491
:1003020083BF83B7877F83BF089583B7806483BF2A
:0803120083B7886083BF0895E2
:10031A00823071F0863039F081110FC060E081E0DF
:10032A000E941401089566E083E00E941401089572
:0E033A0062E083E00E941401089580E00895BF
:1003480062E082E00E94E00067E082E00E94E00054
:1003580063E083E00E94E00082E00E94420187E0BF
:0C0368000E94420183E00E9442010895BF
:10037400813049F028F0823061F0833039F00895FB
:100384008FEF8ABB08958FEF87BB08958FEF81BBF2
:0803940008958FEF84BB08956A
:10039C001F920F920FB60F9211248F938BB38095EF
:0E03AC008BBB8F910F900FBE0F901F90189576
:1003BA0060E081E00E94700066E083E00E947000C5
:0A03CA0062E083E00E9470000895D5
:1003D40093B79F7C93BF23B730E1839FC00111245F
:0603E400822B83BF089587
:1003EA000E94DD010E94A4010E9405020E940C02E3
:0203FA00089564
:0E03FC0093B7987F93BF93B7892B83BF089563
:0E040A0063E080E00E94E0000E94130208956B
:0E04180062E080E00E94E0000E941802089559
:0A04260063E080E00E94A800089542
:0A04300062E080E00E94A800089539
:08043A0089B7826089BF0895B3
:040442000C94000016
:00000001FF
