:100000000C942D000C94FD020C94FD020C94FD0246
:100010000C94FD020C94FD020C94FD020C94FD0264
:100020000C94FD020C94FD020C94FD020C94FD0254
:100030000C94FD020C94FD020C94FD020C94FD0244
:100040000C94FD020C94FD020C94FD020C94FD0234
:100050000C94FD0200600061800011241FBECFE5FA
:10006000D8E0DEBFCDBFE4E5F0E040E017C0B591D9
:10007000A59135912591059107FD0CC0959185912C
:10008000EF01F92FE82F05900D92A217B307D9F7CA
:10009000FE0104C01D92A217B307E1F7E935F4078A
:0E00A00031F70E9436020C945500F894FFCF01
:1000AE00CF93C82F84EA86BF0E94F90281B1887F60
:1000BE0080936000883009F046C08EEA83B984E8E8
:1000CE0086BF0E94F90281B1887F809360008831DB
:1000DE00E1F513B884E886BF0E94F90281B1887FEA
:1000EE0080936000883299F5C3B984E886BF0E9478
:1000FE00F90281B1887F80936000883251F584EADD
:10010E0086BF0E94F90281B1887F809360008031A2
:10011E0011F58FEA83B984E886BF0E94F90281B196
:10012E00887F809360008034C1F484EC86BF0E9487
:10013E00F90281B1887F80936000803581F483B1AC
:10014E0094E996BF0DC080E30BC080E309C080E345
:10015E0007C080E305C080E303C080E301C080E3F5
:04016E00CF91089590
:10017200CF93DF93C82FD62F84EA86BF0E94F9025D
:1001820081B1887F80936000883089F58EEA83B9D7
:1001920084E886BF0E94F90281B1887F8093600063
:1001A200883129F513B884E886BF0E94F90281B12B
:1001B200887F809360008832D1F4C3B984E886BF17
:1001C2000E94F90281B1887F80936000883279F4BD
:1001D200D3B984E886BF0E94F90281B1887F8093F7
:1001E2006000883211F484E986BF84E986BFDF911A
:0401F200CF9108950C
:1001F60080E00E94A80261E081E00E94A70162E01F
:1002060081E00E94A7018FE19EE40197F1F700C00B
:10021600000062E081E00E946F0163E081E00E94DD
:10022600A7018FE19EE40197F1F700C0000063E0AB
:1002360081E00E946F0182E00E94770281E00E94C5
:10024600770286E00E94770288E20E9477028CE0BD
:100256000E9477029FEF20E782E091502040804085
:08026600E1F700C0000008955B
:10026E00813091F028F0823039F18330C9F0089551
:10027E002AB381E090E002C0880F991F6A95E2F7D9
:10028E00809582238ABB089527B381E090E002C057
:10029E00880F991F6A95E2F78095822387BB089590
:1002AE0021B381E090E002C0880F991F6A95E2F7B2
:1002BE008095822381BB089524B381E090E002C033
:1002CE00880F991F6A95E2F78095822384BB089563
:1002DE00813091F028F08230D9F0833029F10895E1
:1002EE002BB381E090E002C0880F991F6A95E2F768
:1002FE00809582238BBB089528B381E090E002C0E5
:10030E00880F991F6A95E2F78095822388BB08951E
:10031E0025B381E090E002C0880F991F6A95E2F73D
:10032E008095822385BB089522B381E090E002C0C0
:10033E00880F991F6A95E2F78095822382BB0895F4
:10034E00813089F028F08230C9F0833011F10895A0
:10035E002AB381E090E002C0880F991F6A95E2F7F8
:10036E00822B8ABB089527B381E090E002C0880FEC
:10037E00991F6A95E2F7822B87BB089524B381E01B
:10038E0090E002C0880F991F6A95E2F7822B84BB1A
:10039E00089521B381E090E002C0880F991F6A95FD
:0803AE00E2F7822B81BB0895E8
:1003B600813089F028F08230C9F0833011F1089538
:1003C6002BB381E090E002C0880F991F6A95E2F78F
:1003D600822B8BBB089528B381E090E002C0880F82
:1003E600991F6A95E2F7822B88BB089525B381E0B1
:1003F60090E002C0880F991F6A95E2F7822B85BBB1
:10040600089522B381E090E002C0880F991F6A9593
:08041600E2F7822B82BB08957E
:10041E00833099F018F4823031F00895873041F02E
:10042E008A3081F0089562E082E00E946F010895A3
:10043E0067E082E00E946F01089563E083E00E940E
:10044E006F01089562E082E00E946F0167E082E032
:0E045E000E946F0163E083E00E946F01089529
:10046C000E94D8020E94FB0087E082B983E080B929
:10047C002FEF83ED90E3215080409040E1F700C0D6
:10048C0000006AE589E190E00E94B9002FEF83ED4E
:10049C0090E3215080409040E1F700C0000089E1DA
:0C04AC0090E00E9457000E945C02FFCF0D
:1004B800CF93C82F61E081E00E94DB018BB38F707E
:1004C8009C2F907F892B8BBB0E94BC028BB3282F5B
:1004D8002F7030E1C39FC0011124822B8BBB0E9477
:0604E800BC02CF91089553
:1004EE00CF93C82F61E081E00E946F018BB38F70B4
:1004FE009C2F907F892B8BBB0E94BC028BB3282F25
:10050E002F7030E1C39FC0011124822B8BBB0E9440
:06051E00BC02CF9108951C
:1005240062E082E00E94A70167E082E00E94A701E6
:1005340063E083E00E94A70182E00E940F0287E04B
:0C0544000E940F0283E00E940F02089545
:10055000813049F028F0823061F0833039F008951D
:100560008FEF8ABB08958FEF87BB08958FEF81BB14
:0805700008958FEF84BB08958C
:1005780063E081E00E94DB018FE39CE90197F1F7DA
:0E05880000C0000063E081E00E946F01089552
:1005960060E081E00E94370166E083E00E94370157
:0A05A60062E083E00E94370108952F
:1005B0000E94CB020E9492020E94E1020E94E80285
:0205C00008959C
:0E05C20063E080E00E94A7010E94EF0208950E
:0E05D00062E080E00E94A7010E94F4020895FC
:0A05DE0063E080E00E946F010895C1
:0A05E80062E080E00E946F010895B8
:0805F20006B607FEFDCF0895D7
:0405FA000C9400005D
:00000001FF
