:100000000C9430000C9466020C9466020C94660208
:100010000C9466020C9466020C9466020C946602C0
:100020000C9466020C9466020C9466020C946602B0
:100030000C9466020C9466020C9466020C946602A0
:100040000C9466020C9466020C9466020C94660290
:100050000C9466020060006280006200900004D090
:1000600011241FBECFE5D8E0DEBFCDBFE4E5F0E050
:1000700040E017C0B591A59135912591059107FDF7
:100080000CC095918591EF01F92FE82F05900D9205
:10009000A217B307D9F7FE0104C01D92A217B30738
:1000A000E1F7E036F40731F70E945A000C9458004B
:0400B000F894FFCFF2
:1000B4000E9404020E9459020E94B100C1E060E063
:1000C40082E00E94C201882389F08091610081113D
:1000D4001DC060E083E00E948E010E94620285E8F8
:1000E40090E00E943402C093610010C080916100CE
:1000F400882361F060E083E00E9422010E94620292
:100104008EE690E00E943402109261006C2F82E02F
:100114000E94C201882389F0809160008111CFCFB1
:100124006C2F83E00E948E010E9462028AE790E0B5
:100134000E943402C0936000C2CF80916000882383
:1001440009F4BDCF6C2F83E00E9422010E94620259
:0E01540082E690E00E94340210926000B0CF6C
:1001620080E00E94F00162E081E00E945A0161E0B9
:1001720081E00E945A018FE19EE40197F1F700C0ED
:10018200000061E081E00E94220160E081E00E94C3
:100192005A018FE19EE40197F1F700C0000060E090
:1001A20081E00E94220181E00E944E0286E00E94CC
:1001B2004E0288E30E944E028CE00E944E029FEFA4
:1001C20020E782E0915020408040E1F700C000002B
:0201D20008958E
:1001D400813091F028F0823039F18330C9F00895EC
:1001E4002AB381E090E002C0880F991F6A95E2F774
:1001F400809582238ABB089527B381E090E002C0F2
:10020400880F991F6A95E2F78095822387BB08952A
:1002140021B381E090E002C0880F991F6A95E2F74C
:100224008095822381BB089524B381E090E002C0CD
:10023400880F991F6A95E2F78095822384BB0895FD
:10024400813091F028F08230D9F0833029F108957B
:100254002BB381E090E002C0880F991F6A95E2F702
:10026400809582238BBB089528B381E090E002C07F
:10027400880F991F6A95E2F78095822388BB0895B9
:1002840025B381E090E002C0880F991F6A95E2F7D8
:100294008095822385BB089522B381E090E002C05B
:1002A400880F991F6A95E2F78095822382BB08958F
:1002B400813089F028F08230C9F0833011F108953B
:1002C4002AB381E090E002C0880F991F6A95E2F793
:1002D400822B8ABB089527B381E090E002C0880F87
:1002E400991F6A95E2F7822B87BB089524B381E0B6
:1002F40090E002C0880F991F6A95E2F7822B84BBB5
:10030400089521B381E090E002C0880F991F6A9597
:08031400E2F7822B81BB089582
:10031C00813089F028F08230C9F0833011F10895D2
:10032C002BB381E090E002C0880F991F6A95E2F729
:10033C00822B8BBB089528B381E090E002C0880F1C
:10034C00991F6A95E2F7822B88BB089525B381E04B
:10035C0090E002C0880F991F6A95E2F7822B85BB4B
:10036C00089522B381E090E002C0880F991F6A952E
:08037C00E2F7822B82BB089519
:10038400813079F028F08230A9F08330E1F024C084
:1003940089B390E002C0959587956A95E2F78170DC
:1003A400089586B390E002C0959587956A95E2F723
:1003B4008170089583B390E002C0959587956A95FE
:1003C400E2F78170089580B390E002C09595879517
:0C03D4006A95E2F78170089580E00895BA
:1003E000813049F028F0823061F0833039F008958F
:1003F0008FEF8ABB08958FEF87BB08958FEF81BB86
:0804000008958FEF84BB0895FD
:1004080060E083E00E945A0161E083E00E945A01A3
:1004180060E083E00E94220161E083E00E94220103
:02042800089535
:10042A00813041F028F0823049F0833029F0089574
:10043A006BBB089568BB089562BB089565BB0895B8
:10044A0060E081E00E948E018FE39CE90197F1F759
:0E045A0000C0000060E081E00E9422010895D1
:10046800CF93DF93EC018881882331F021960E9495
:0E047800430289918111FBCFDF91CF9108954E
:10048600682F80E00E94150262E081E00E948E01E2
:060496000E9425020895FA
:10049C00682F80E00E94150262E081E00E94220138
:0604AC000E9425020895E4
:1004B20060E082E00E94EA0061E082E00E94EA00DD
:0204C20008959B
:0804C40081E00E944E02089540
:0404CC000C9400008C
:0C04D0004C454431206973204F46460023
:0C04DC004C454430206973204F46460018
:0B04E8004C454431206973204F4E004A
:0B04F3004C454430206973204F4E0040
:00000001FF
