:100000000C942A000C94A7040C94A7040C94A70445
:100010000C94A7040C94A7040C94A7040C94A704B4
:100020000C94A7040C94A7040C94A7040C94A704A4
:100030000C94A7040C94A7040C94A7040C94A70494
:100040000C94A0000C94A7040C94A7040C94A7048F
:100050000C94A70411241FBECFE5D8E0DEBFCDBFAE
:0C0060000E947C030C943400F894FFCF45
:10006C000FC00E947E0438F00E94850420F0952376
:10007C0011F00C948C040C94A40411240C947804AA
:10008C000E94ED0270F3959FC1F3950F50E0551F40
:10009C00629FF001729FBB27F00DB11D639FAA27D1
:1000AC00F00DB11DAA1F649F6627B00DA11D661F20
:1000BC00829F2227B00DA11D621F739FB00DA11D41
:1000CC00621F839FA00D611D221F749F3327A00DFB
:1000DC00611D231F849F600D211D822F762F6A2F97
:1000EC0011249F5750409AF0F1F088234AF0EE0FFC
:1000FC00FF1FBB1F661F771F881F91505040A9F729
:10010C009E3F510580F00C948C040C9478045F3F56
:10011C00E4F3983ED4F3869577956795B795F79564
:10012C00E7959F5FC1F7FE2B880F911D96958795DC
:04013C0097F9089592
:100140001F920F920FB60F9211241F932F933F937C
:100150004F935F936F937F938F939F93AF93BF93CF
:10016000CF93DF93EF93FF93C4B1D0E015B10E941A
:100170009C04BE01712B072E000C880B990B0E946A
:10018000F30020E030E44CE950E40E94A0040E9417
:100190007004CB010E940F038DE60E942C0386E5BC
:1001A0000E942C032FEF80E792E021508040904086
:1001B000E1F700C000000E94AB04FF91EF91DF91D6
:1001C000CF91BF91AF919F918F917F916F915F91EF
:1001D0004F913F912F911F910F900FBE0F901F9045
:0201E000189570
:1001E200E89409C097FB3EF49095809570956195CF
:1001F2007F4F8F4F9F4F9923A9F0F92F96E9BB2785
:100202009395F695879577956795B795F111F8CF00
:10021200FAF4BB0F11F460FF1BC06F5F7F4F8F4F6B
:100222009F4F16C0882311F096E911C0772321F061
:100232009EE8872F762F05C0662371F096E8862FF9
:1002420070E060E02AF09A95660F771F881FDAF750
:0A025200880F9695879597F9089597
:10025C0080E00E94C20361E081E00E94DA0162E06A
:10026C0081E00E94DA018FE19EE40197F1F700C072
:10027C00000062E081E00E94A20163E081E00E9444
:10028C00DA018FE19EE40197F1F700C0000063E012
:10029C0081E00E94A20182E00E94470381E00E945B
:1002AC00470386E00E94470388E20E9447038CE0E4
:1002BC000E9447039FEF20E782E09150204080404E
:0802CC00E1F700C000000895F5
:1002D400813091F028F0823039F18330C9F00895EB
:1002E4002AB381E090E002C0880F991F6A95E2F773
:1002F400809582238ABB089527B381E090E002C0F1
:10030400880F991F6A95E2F78095822387BB089529
:1003140021B381E090E002C0880F991F6A95E2F74B
:100324008095822381BB089524B381E090E002C0CC
:10033400880F991F6A95E2F78095822384BB0895FC
:10034400813091F028F08230D9F0833029F108957A
:100354002BB381E090E002C0880F991F6A95E2F701
:10036400809582238BBB089528B381E090E002C07E
:10037400880F991F6A95E2F78095822388BB0895B8
:1003840025B381E090E002C0880F991F6A95E2F7D7
:100394008095822385BB089522B381E090E002C05A
:1003A400880F991F6A95E2F78095822382BB08958E
:1003B400813089F028F08230C9F0833011F108953A
:1003C4002AB381E090E002C0880F991F6A95E2F792
:1003D400822B8ABB089527B381E090E002C0880F86
:1003E400991F6A95E2F7822B87BB089524B381E0B5
:1003F40090E002C0880F991F6A95E2F7822B84BBB4
:10040400089521B381E090E002C0880F991F6A9596
:08041400E2F7822B81BB089581
:10041C00813089F028F08230C9F0833011F10895D1
:10042C002BB381E090E002C0880F991F6A95E2F728
:10043C00822B8BBB089528B381E090E002C0880F1B
:10044C00991F6A95E2F7822B88BB089525B381E04A
:10045C0090E002C0880F991F6A95E2F7822B85BB4A
:10046C00089522B381E090E002C0880F991F6A952D
:08047C00E2F7822B82BB089518
:100484000E94F50288F09F5798F0B92F9927B75129
:10049400B0F0E1F0660F771F881F991F1AF0BA9524
:1004A400C9F714C0B13091F00E947704B1E0089507
:1004B4000C947704672F782F8827B85F39F0B93FF9
:1004C400CCF3869577956795B395D9F73EF49095D7
:0E04D4008095709561957F4F8F4F9F4F0895D3
:1004E200813079F028F08230A9F08330E1F024C025
:1004F20089B390E002C0959587956A95E2F781707D
:10050200089586B390E002C0959587956A95E2F7C3
:100512008170089583B390E002C0959587956A959E
:10052200E2F78170089580B390E002C095958795B7
:0C0532006A95E2F78170089580E008955A
:10053E00833099F018F4823031F00895873041F00D
:10054E008A3081F0089562E082E00E940E020895E2
:10055E0067E082E00E940E02089563E083E00E944D
:10056E000E02089562E082E00E940E0267E082E0D1
:0E057E000E940E0263E083E00E940E020895C8
:10058C00833099F018F4823031F00895873041F0BF
:10059C008A3081F0089562E082E00E94A201089501
:1005AC0067E082E00E94A201089563E083E00E946C
:1005BC00A201089562E082E00E94A20167E082E05D
:0E05CC000E94A20163E083E00E94A201089554
:1005DA0057FD9058440F551F59F05F3F71F04795EA
:1005EA00880F97FB991F61F09F3F79F087950895CF
:1005FA00121613061406551FF2CF4695F1DF08C0EE
:10060A00161617061806991FF1CF8695710561050A
:04061A0008940895A3
:10061E00CF93DF93CDB7DEB72B970FB6F894DEBF2F
:10062E000FBECDBF4AE0BE016F5F7F4F0E944004F8
:10063E00CE0101960E9419042B960FB6F894DEBFD8
:0A064E000FBECDBFDF91CF910895DC
:10065800CF93C82F61E081E00E940E028BB38F70A8
:100668009C2F907F892B8BBB0E940A048BB3282F69
:100678002F7030E1C39FC0011124822B8BBB0E94D5
:060688000A04CF91089561
:10068E00CF93C82F61E081E00E94A2018BB38F70DF
:10069E009C2F907F892B8BBB0E940A048BB3282F33
:1006AE002F7030E1C39FC0011124822B8BBB0E949F
:0606BE000A04CF9108952B
:1006C400BB27FB015527AA27880F991FAA1FA41728
:1006D40010F0A41B83955051B9F7A05DAA3308F01C
:1006E400A95DA193009779F7B111B1931192CB0150
:0406F4000C94FA0365
:1006F8000E944B040E942E0147E061E083E10E94C2
:10070800D60378940E94AB0480E00E949503882366
:1007180021F082E00E949F02F7CF82E00E94C60289
:02072800F3CF0D
:10072A00823071F0863039F081110FC060E081E0CB
:10073A000E947102089566E083E00E9471020895A2
:0E074A0062E083E00E947102089580E008954D
:1007580062E082E00E94DA0167E082E00E94DA014A
:1007680063E083E00E94DA0182E00E94C60287E02B
:0C0778000E94C60283E00E94C6020895A1
:10078400813049F028F0823061F0833039F00895E7
:100794008FEF8ABB08958FEF87BB08958FEF81BBDE
:0807A40008958FEF84BB089556
:1007AC00CF93DF93D62FC42F0E9454048D2F0E9419
:1007BC0035048C2F0E945B040E94AD040E94A90496
:0607CC00DF91CF910895BA
:1007D200092E0394000C11F4882352F0BB0F40F44D
:1007E200BF2B11F460FF04C06F5F7F4F8F4F9F4F8D
:0207F200089568
:1007F400DC01FC01672F71917723E1F7329704C084
:100804007C916D9370836291AE17BF07C8F308950E
:1008140063E081E00E940E028FE39CE90197F1F707
:0E08240000C0000063E081E00E94A201089580
:10083200CF93DF93EC018881882331F021960E94C7
:0E0842002C0389918111FBCFDF91CF91089596
:1008500060E081E00E946A0166E083E00E946A0134
:0A08600062E083E00E946A0108953F
:10086A0097B19F7397B927B130E4839FC0011124D0
:06087A00822B87B90895EE
:10088000BB274A3031F4992322F4BDE2909581953B
:060890009F4F0C9463036E
:100896000E9428040E94AC030E9462040E9469041C
:0208A6000895B3
:0E08A80097B1907E97B997B1892B87B90895C3
:0E08B60096B1987F96B996B1892B86B90895B0
:0E08C40063E080E00E94DA010E949204089531
:0E08D20062E080E00E94DA010E94970408951F
:0E08E0000E9442026894B1110C9478040895AD
:0E08EE00E894BB2766277727CB0197F908957A
:0E08FC0000240A941616170618060906089519
:0E090A0000240A94121613061406050608951A
:0C09180097F99F6780E870E060E00895A8
:0A09240063E080E00E94A201089544
:0A092E0062E080E00E94A20108953B
:0809380081E00E9447030895CD
:080940000E9436000C94E9034B
:060948009FEF80EC089512
:04094E000C94000005
:04095200379A089533
:04095600369A089530
:04095A00339A08952F
:00000001FF
