:100000000C942A000C94DA030C94DA030C94DA03AF
:100010000C94DA030C94DA030C94DA030C94DA03EC
:100020000C94DA030C94DA030C94DA030C94DA03DC
:100030000C94DA030C94DA030C94DA030C94DA03CC
:100040000C94DA030C94DA030C94DA030C94DA03BC
:100050000C94DA0311241FBECFE5D8E0DEBFCDBF7C
:0C0060000E94F0010C943400F894FFCFD3
:10006C0010C00E94B10358F00E94AA0340F029F47A
:10007C005F3F29F00C94BF0351110C94B9030C94FD
:10008C00D7030E94CB0268F39923B1F3552391F364
:10009C00951B550BBB27AA2762177307840738F0EB
:1000AC009F5F5F4F220F331F441FAA1FA9F335D048
:1000BC000E2E3AF0E0E832D091505040E695001CFC
:1000CC00CAF72BD0FE2F29D0660F771F881FBB1FB6
:1000DC00261737074807AB07B0E809F0BB0B802D94
:1000EC00BF01FF2793585F4F3AF09E3F510578F0C0
:1000FC000C94BF030C94B9035F3FE4F3983ED4F324
:10010C00869577956795B795F7959F5FC9F7880F93
:10011C00911D9695879597F90895E1E0660F771FE5
:10012C00881FBB1F621773078407BA0720F0621B76
:0E013C00730B840BBA0BEE1F88F7E095089545
:10014A000FC00E94AA0338F00E94B10320F0952341
:10015A0011F00C94BF030C94D70311240C94B90327
:10016A000E94CB0270F3959FC1F3950F50E0551F83
:10017A00629FF001729FBB27F00DB11D639FAA27F2
:10018A00F00DB11DAA1F649F6627B00DA11D661F41
:10019A00829F2227B00DA11D621F739FB00DA11D62
:1001AA00621F839FA00D611D221F749F3327A00D1C
:1001BA00611D231F849F600D211D822F762F6A2FB8
:1001CA0011249F5750409AF0F1F088234AF0EE0F1D
:1001DA00FF1FBB1F661F771F881F91505040A9F74A
:1001EA009E3F510580F00C94BF030C94B9035F3F06
:1001FA00E4F3983ED4F3869577956795B795F79586
:10020A00E7959F5FC1F7FE2B880F911D96958795FD
:04021A0097F90895B3
:10021E00E89409C097FB3EF4909580957095619592
:10022E007F4F8F4F9F4F9923A9F0F92F96E9BB2748
:10023E009395F695879577956795B795F111F8CFC4
:10024E00FAF4BB0F11F460FF1BC06F5F7F4F8F4F2F
:10025E009F4F16C0882311F096E911C0772321F025
:10026E009EE8872F762F05C0662371F096E8862FBD
:10027E0070E060E02AF09A95660F771F881FDAF714
:0A028E00880F9695879597F908955B
:10029800813091F028F0823039F18330C9F0089527
:1002A8002AB381E090E002C0880F991F6A95E2F7AF
:1002B800809582238ABB089527B381E090E002C02D
:1002C800880F991F6A95E2F78095822387BB089566
:1002D80021B381E090E002C0880F991F6A95E2F788
:1002E8008095822381BB089524B381E090E002C009
:1002F800880F991F6A95E2F78095822384BB089539
:10030800813091F028F08230D9F0833029F10895B6
:100318002BB381E090E002C0880F991F6A95E2F73D
:10032800809582238BBB089528B381E090E002C0BA
:10033800880F991F6A95E2F78095822388BB0895F4
:1003480025B381E090E002C0880F991F6A95E2F713
:100358008095822385BB089522B381E090E002C096
:10036800880F991F6A95E2F78095822382BB0895CA
:10037800813089F028F08230C9F0833011F1089576
:100388002AB381E090E002C0880F991F6A95E2F7CE
:10039800822B8ABB089527B381E090E002C0880FC2
:1003A800991F6A95E2F7822B87BB089524B381E0F1
:1003B80090E002C0880F991F6A95E2F7822B84BBF0
:1003C800089521B381E090E002C0880F991F6A95D3
:0803D800E2F7822B81BB0895BE
:1003E00080E00E944F030E948C0363E081E00E9442
:1003F000BC0125E042E363E083E00E94ED027894D3
:1004000082E00E942203882361F08CB7865F8CBF54
:100410002FEF89E698E1215080409040E1F700C03D
:10042000000086E00E942203882351F38CB78A5093
:100430008CBF2FEF89E698E1215080409040E1F792
:0604400000C00000DDCF4A
:100446000E94D30288F09F5798F0B92F9927B75189
:10045600B0F0E1F0660F771F881F991F1AF0BA9562
:10046600C9F714C0B13091F00E94B803B1E0089505
:100476000C94B803672F782F8827B85F39F0B93FF7
:10048600CCF3869577956795B395D9F73EF4909515
:0E0496008095709561957F4F8F4F9F4F089511
:1004A400813079F028F08230A9F08330E1F024C063
:1004B40089B390E002C0959587956A95E2F78170BB
:1004C400089586B390E002C0959587956A95E2F702
:1004D4008170089583B390E002C0959587956A95DD
:1004E400E2F78170089580B390E002C095958795F6
:0C04F4006A95E2F78170089580E0089599
:10050000833099F018F4823031F00895873041F04B
:100510008A3081F0089562E082E00E9484010895AB
:1005200067E082E00E948401089563E083E00E9416
:100530008401089562E082E00E94840167E082E025
:0E0540000E94840163E083E00E94840108951C
:10054E00813069F028F0823089F08330B1F008955F
:10055E0083B78F7B83BF83B7877F83BF089583B7AE
:10056E008F7B83BF83B7886083BF089583B7806412
:10057E0083BF83B7877F83BF089583B7806483BFAC
:08058E0083B7886083BF089564
:1005960057FD9058440F551F59F05F3F71F047952E
:1005A600880F97FB991F61F09F3F79F08795089513
:1005B600121613061406551FF2CF4695F1DF08C032
:1005C600161617061806991FF1CF8695710561054F
:0405D60008940895E8
:1005DA000F931F93CF93DF93C82F162F042FD22F79
:1005EA000E94A702812F0E948103C250C23018F4D0
:1005FA00802F0E9408038D2F0E949503DF91CF91CF
:06060A001F910F910895FD
:1006100064E670E0681B7109072E000C880B990BCB
:100620000E94110120E030E04FE753E40E94D30321
:1006300020E030E048EC52E40E94CF030E94230205
:040640006CBF0895EE
:10064400823071F0863039F081110FC060E081E0B2
:100654000E945202089566E083E00E9452020895C7
:0E06640062E083E00E945202089580E0089553
:1006720062E082E00E94BC0167E082E00E94BC016D
:1006820063E083E00E94BC0182E00E94800287E076
:0C0692000E94800283E00E948002089514
:10069E00813049F028F0823061F0833039F00895CE
:1006AE008FEF8ABB08958FEF87BB08958FEF81BBC5
:0806BE0008958FEF84BB08953D
:1006C600092E0394000C11F4882352F0BB0F40F45A
:1006D600BF2B11F460FF04C06F5F7F4F8F4F9F4F9A
:0206E600089575
:1006E80060E081E00E944C0166E083E00E944C01DA
:0A06F80062E083E00E944C010895C7
:1007020093B79F7C93BF23B730E1839FC00111242D
:06071200822B83BF089555
:100718000E9474030E9439030E949C030E94A30351
:02072800089532
:0E072A0093B7987F93BF93B7892B83BF089531
:0E07380063E080E00E94BC010E94C5030895AA
:0E07460062E080E00E94BC010E94CA03089598
:0E07540000240A9416161706180609060895C2
:0E07620000240A9412161306140605060895C4
:0E077000E894BB2766277727CB0197F90895F9
:0C077E0097F99F6780E870E060E0089544
:0A078A0063E080E00E9484010895FE
:0A07940062E080E00E9484010895F5
:08079E000E9436000C94630375
:0807A6000E94A5000C946303FE
:0607AE009FEF80EC0895AE
:0407B4000C940000A1
:00000001FF
