:100000000C942A000C94A2030C94A2030C94A20357
:100010000C94A2030C94A2030C94A2030C94A203CC
:100020000C94A2030C94A2030C94A2030C94A203BC
:100030000C94A2030C94A2030C94A2030C94A203AC
:100040000C94A0000C94A2030C94A2030C94A203A1
:100050000C94A20311241FBECFE5D8E0DEBFCDBFB4
:0C0060000E9437020C943400F894FFCF8B
:10006C000FC00E94830338F00E948A0320F095236E
:10007C0011F00C9491030C949F0311240C947D03A8
:10008C000E945C0270F3959FC1F3950F50E0551FD1
:10009C00629FF001729FBB27F00DB11D639FAA27D1
:1000AC00F00DB11DAA1F649F6627B00DA11D661F20
:1000BC00829F2227B00DA11D621F739FB00DA11D41
:1000CC00621F839FA00D611D221F749F3327A00DFB
:1000DC00611D231F849F600D211D822F762F6A2F97
:1000EC0011249F5750409AF0F1F088234AF0EE0FFC
:1000FC00FF1FBB1F661F771F881F91505040A9F729
:10010C009E3F510580F00C9491030C947D035F3F4E
:10011C00E4F3983ED4F3869577956795B795F79564
:10012C00E7959F5FC1F7FE2B880F911D96958795DC
:04013C0097F9089592
:100140001F920F920FB60F9211241F932F933F937C
:100150004F935F936F937F938F939F93AF93BF93CF
:10016000CF93DF93EF93FF93C4B1D0E015B10E941A
:100170009703BE01712B072E000C880B990B0E9470
:10018000F10020E030E44CE950E40E949B030E941F
:100190007503CB010E947E028DE60E949B0286E5DC
:1001A0000E949B022FEF80E792E021508040904018
:1001B000E1F700C00000FF91EF91DF91CF91BF9177
:1001C000AF919F918F917F916F915F914F913F91EF
:0E01D0002F911F910F900FBE0F901F9018954A
:1001DE00E89409C097FB3EF49095809570956195D3
:1001EE007F4F8F4F9F4F9923A9F0F92F96E9BB2789
:1001FE009395F695879577956795B795F111F8CF05
:10020E00FAF4BB0F11F460FF1BC06F5F7F4F8F4F6F
:10021E009F4F16C0882311F096E911C0772321F065
:10022E009EE8872F762F05C0662371F096E8862FFD
:10023E0070E060E02AF09A95660F771F881FDAF754
:0A024E00880F9695879597F908959B
:1002580080E00E94EB0261E081E00E94A00162E080
:1002680081E00E94A0018FE19EE40197F1F700C0B0
:10027800000062E081E00E94680163E081E00E9482
:10028800A0018FE19EE40197F1F700C0000063E050
:1002980081E00E94680182E00E94B60281E00E942B
:1002A800B60286E00E94B60288E20E94B6028CE09E
:1002B8000E94B6029FEF20E782E0915020408040E4
:0802C800E1F700C000000895F9
:1002D000813091F028F08230D9F0833029F10895EF
:1002E0002BB381E090E002C0880F991F6A95E2F776
:1002F000809582238BBB089528B381E090E002C0F3
:10030000880F991F6A95E2F78095822388BB08952C
:1003100025B381E090E002C0880F991F6A95E2F74B
:100320008095822385BB089522B381E090E002C0CE
:10033000880F991F6A95E2F78095822382BB089502
:10034000813089F028F08230C9F0833011F10895AE
:100350002AB381E090E002C0880F991F6A95E2F706
:10036000822B8ABB089527B381E090E002C0880FFA
:10037000991F6A95E2F7822B87BB089524B381E029
:1003800090E002C0880F991F6A95E2F7822B84BB28
:10039000089521B381E090E002C0880F991F6A950B
:0803A000E2F7822B81BB0895F6
:1003A800813089F028F08230C9F0833011F1089546
:1003B8002BB381E090E002C0880F991F6A95E2F79D
:1003C800822B8BBB089528B381E090E002C0880F90
:1003D800991F6A95E2F7822B88BB089525B381E0BF
:1003E80090E002C0880F991F6A95E2F7822B85BBBF
:1003F800089522B381E090E002C0880F991F6A95A2
:08040800E2F7822B82BB08958C
:100410000E94640288F09F5798F0B92F9927B7512E
:10042000B0F0E1F0660F771F881F991F1AF0BA9598
:10043000C9F714C0B13091F00E947C03B1E0089577
:100440000C947C03672F782F8827B85F39F0B93F69
:10045000CCF3869577956795B395D9F73EF490954B
:0E0460008095709561957F4F8F4F9F4F089547
:10046E000E942C0147E061E081E00E94FF02789437
:10047E0081E00E9467030E94A6032FEF89E698E1B0
:10048E00215080409040E1F700C0000080E00E94C3
:10049E0067030E94A6032FEF89E698E12150804062
:0A04AE009040E1F700C00000E3CF2A
:1004B80057FD9058440F551F59F05F3F71F047950D
:1004C800880F97FB991F61F09F3F79F087950895F2
:1004D800121613061406551FF2CF4695F1DF08C011
:1004E800161617061806991FF1CF8695710561052E
:0404F80008940895C7
:1004FC00CF93DF93CDB7DEB72B970FB6F894DEBF53
:10050C000FBECDBF4AE0BE016F5F7F4F0E945C0300
:10051C00CE0101960E9442032B960FB6F894DEBFD3
:0A052C000FBECDBFDF91CF910895FF
:10053600CF93C82F61E081E00E94D4018BB38F7006
:100546009C2F907F892B8BBB0E9433038BB3282F64
:100556002F7030E1C39FC0011124822B8BBB0E94F8
:060566003303CF9108955C
:10056C00CF93C82F61E081E00E9468018BB38F703C
:10057C009C2F907F892B8BBB0E9433038BB3282F2E
:10058C002F7030E1C39FC0011124822B8BBB0E94C2
:06059C003303CF91089526
:1005A200BB27FB015527AA27880F991FAA1FA4174B
:1005B20010F0A41B83955051B9F7A05DAA3308F03F
:1005C200A95DA193009779F7B111B1931192CB0173
:0405D2000C9423035F
:1005D600813049F028F0823061F0833039F0089597
:1005E6008FEF8ABB08958FEF87BB08958FEF81BB8E
:0805F60008958FEF84BB089506
:1005FE00CF93DF93D62FC42F0E9467038D2F0E94B7
:10060E0051038C2F0E946E030E94A8030E94A40324
:06061E00DF91CF91089569
:10062400092E0394000C11F4882352F0BB0F40F4FC
:10063400BF2B11F460FF04C06F5F7F4F8F4F9F4F3C
:02064400089517
:10064600DC01FC01672F71917723E1F7329704C033
:100656007C916D9370836291AE17BF07C8F30895BE
:1006660063E081E00E94D4018FE39CE90197F1F7F2
:0E06760000C0000063E081E00E94680108956A
:10068400CF93DF93EC018881882331F021960E9477
:0E0694009B0289918111FBCFDF91CF910895D8
:1006A20097B19F7397B927B130E4839FC00111249A
:0606B200822B87B90895B8
:1006B800BB274A3031F4992322F4BDE29095819505
:0606C8009F4F0C94D202CA
:0E06CE0097B1907E97B997B1892B87B908959F
:0E06DC0096B1987F96B996B1892B86B908958C
:0E06EA000E9408026894B1110C947D030895DB
:0E06F800E894BB2766277727CB0197F9089572
:0E07060000240A941616170618060906089510
:0E07140000240A941216130614060506089512
:0C07220097F99F6780E870E060E00895A0
:08072E0081E00E94B60208956B
:080736000E9436000C9412032E
:06073E009FEF80EC08951E
:040744000C94000011
:04074800379A08953F
:04074C00369A08953C
:04075000339A08953B
:00000001FF
