:100000000C942A000C94EF010C94EF010C94EF0176
:100010000C94EF010C94EF010C94EF010C94EF01A0
:100020000C94EF010C94EF010C94EF010C94EF0190
:100030000C94EF010C94EF010C94EF010C94EF0180
:100040000C94EF010C94EF010C94EF010C94EF0170
:100050000C94EF0111241FBECFE5D8E0DEBFCDBF69
:10006000E4E5F0E040E017C0B591A5913591259108
:10007000059107FD0CC095918591EF01F92FE82FAF
:1000800005900D92A217B307D9F7FE0104C01D9287
:10009000A217B307E1F7E435F40731F70E946401D2
:0800A0000C945200F894FFCF0C
:1000A80080E00E947C0167E081E00E94C50060E07A
:1000B80081E00E94C5008FE19EE40197F1F700C03E
:1000C800000060E081E00E948D0062E081E00E9413
:1000D800C5008FE19EE40197F1F700C0000062E0DF
:1000E80081E00E948D0081E00E94D90186E00E9493
:1000F800D90188E30E94D9018CE00E94D9019FEFC1
:1001080020E782E0915020408040E1F700C00000E5
:02011800089548
:10011A00813091F028F08230D9F0833029F10895A6
:10012A002BB381E090E002C0880F991F6A95E2F72D
:10013A00809582238BBB089528B381E090E002C0AA
:10014A00880F991F6A95E2F78095822388BB0895E4
:10015A0025B381E090E002C0880F991F6A95E2F703
:10016A008095822385BB089522B381E090E002C086
:10017A00880F991F6A95E2F78095822382BB0895BA
:10018A00813089F028F08230C9F0833011F1089566
:10019A002AB381E090E002C0880F991F6A95E2F7BE
:1001AA00822B8ABB089527B381E090E002C0880FB2
:1001BA00991F6A95E2F7822B87BB089524B381E0E1
:1001CA0090E002C0880F991F6A95E2F7822B84BBE0
:1001DA00089521B381E090E002C0880F991F6A95C3
:0801EA00E2F7822B81BB0895AE
:1001F200813089F028F08230C9F0833011F10895FE
:100202002BB381E090E002C0880F991F6A95E2F754
:10021200822B8BBB089528B381E090E002C0880F47
:10022200991F6A95E2F7822B88BB089525B381E076
:1002320090E002C0880F991F6A95E2F7822B85BB76
:10024200089522B381E090E002C0880F991F6A9559
:08025200E2F7822B82BB089544
:10025A00CF93DF93CDB7DEB72B970FB6F894DEBFF7
:10026A000FBECDBF4AE0BE016F5F7F4F0E94E4011F
:10027A00CE0101960E94BF012B960FB6F894DEBFFD
:0A028A000FBECDBFDF91CF910895A4
:10029400BB27FB015527AA27880F991FAA1FA4175C
:1002A40010F0A41B83955051B9F7A05DAA3308F050
:1002B400A95DA193009779F7B111B1931192CB0184
:0402C4000C94A001F5
:1002C8000E945400C6E6D0E082E00E94D9018E0167
:1002D80001501109CE010E942D012FEF89E698E106
:1002E800215080409040E1F700C00000E801ECCFC9
:1002F800813049F028F0823061F0833039F0089578
:100308008FEF8ABB08958FEF87BB08958FEF81BB6E
:0803180008958FEF84BB0895E6
:10032000813041F028F0823049F0833029F008957F
:100330006BBB089568BB089562BB089565BB0895C3
:10034000DC01FC01672F71917723E1F7329704C03C
:100350007C916D9370836291AE17BF07C8F30895C7
:1003600062E081E00E94F9008FE39CE90197F1F7D8
:0E03700000C0000062E081E00E948D00089550
:10037E00CF93DF93EC018881882331F021960E9480
:0E038E00CE0189918111FBCFDF91CF910895AF
:10039C00682F80E00E94900167E081E00E94F900E4
:0603AC000E94B00108955B
:1003B200682F80E00E94900167E081E00E948D003A
:0603C2000E94B001089545
:1003C800BB274A3031F4992322F4BDE290958195F8
:0603D8009F4F0C944B0145
:0403DE000C9400007B
:00000001FF
