:100000000C942A000C9486030C9486030C948603AB
:100010000C9486030C9486030C9486030C9486033C
:100020000C9486030C9486030C9486030C9486032C
:100030000C9486030C9486030C9486030C9486031C
:100040000C94A0000C9486030C9486030C948603F5
:100050000C94860311241FBECFE5D8E0DEBFCDBFD0
:0C0060000E9435030C943400F894FFCF8C
:10006C000FC00E94670338F00E946E0320F09523A6
:10007C0011F00C9475030C94830311240C946103FC
:10008C000E94350270F3959FC1F3950F50E0551FF8
:10009C00629FF001729FBB27F00DB11D639FAA27D1
:1000AC00F00DB11DAA1F649F6627B00DA11D661F20
:1000BC00829F2227B00DA11D621F739FB00DA11D41
:1000CC00621F839FA00D611D221F749F3327A00DFB
:1000DC00611D231F849F600D211D822F762F6A2F97
:1000EC0011249F5750409AF0F1F088234AF0EE0FFC
:1000FC00FF1FBB1F661F771F881F91505040A9F729
:10010C009E3F510580F00C9475030C9461035F3F86
:10011C00E4F3983ED4F3869577956795B795F79564
:10012C00E7959F5FC1F7FE2B880F911D96958795DC
:04013C0097F9089592
:100140001F920F920FB60F9211242F933F934F934C
:100150005F936F937F938F939F93AF93BF93CF934F
:10016000DF93EF93FF9364B185B170E0EB01D82B7F
:100170000E947B03BE01DD0F880B990B0E94EF00EC
:1001800020E030E44CE950E40E947F030E945903D0
:10019000CB010E9457028DE60E94740286E50E9400
:1001A00074022FEF80E792E0215080409040E1F709
:1001B00000C00000FF91EF91DF91CF91BF91AF910F
:1001C0009F918F917F916F915F914F913F912F916F
:0A01D0000F900FBE0F901F901895BE
:1001DA00E89409C097FB3EF49095809570956195D7
:1001EA007F4F8F4F9F4F9923A9F0F92F96E9BB278D
:1001FA009395F695879577956795B795F111F8CF09
:10020A00FAF4BB0F11F460FF1BC06F5F7F4F8F4F73
:10021A009F4F16C0882311F096E911C0772321F069
:10022A009EE8872F762F05C0662371F096E8862F01
:10023A0070E060E02AF09A95660F771F881FDAF758
:0A024A00880F9695879597F908959F
:1002540080E00E94C40261E081E00E949E0162E0AD
:1002640081E00E949E018FE19EE40197F1F700C0B6
:10027400000062E081E00E94660163E081E00E9488
:100284009E018FE19EE40197F1F700C0000063E056
:1002940081E00E94660182E00E948F0281E00E9458
:1002A4008F0286E00E948F0288E20E948F028CE017
:1002B4000E948F029FEF20E782E09150204080400F
:0802C400E1F700C000000895FD
:1002CC00813091F028F08230D9F0833029F10895F3
:1002DC002BB381E090E002C0880F991F6A95E2F77A
:1002EC00809582238BBB089528B381E090E002C0F7
:1002FC00880F991F6A95E2F78095822388BB089531
:10030C0025B381E090E002C0880F991F6A95E2F74F
:10031C008095822385BB089522B381E090E002C0D2
:10032C00880F991F6A95E2F78095822382BB089506
:10033C00813089F028F08230C9F0833011F10895B2
:10034C002AB381E090E002C0880F991F6A95E2F70A
:10035C00822B8ABB089527B381E090E002C0880FFE
:10036C00991F6A95E2F7822B87BB089524B381E02D
:10037C0090E002C0880F991F6A95E2F7822B84BB2C
:10038C00089521B381E090E002C0880F991F6A950F
:08039C00E2F7822B81BB0895FA
:1003A400813089F028F08230C9F0833011F108954A
:1003B4002BB381E090E002C0880F991F6A95E2F7A1
:1003C400822B8BBB089528B381E090E002C0880F94
:1003D400991F6A95E2F7822B88BB089525B381E0C3
:1003E40090E002C0880F991F6A95E2F7822B85BBC3
:1003F400089522B381E090E002C0880F991F6A95A6
:08040400E2F7822B82BB089590
:10040C000E943D0288F09F5798F0B92F9927B75159
:10041C00B0F0E1F0660F771F881F991F1AF0BA959C
:10042C00C9F714C0B13091F00E946003B1E0089597
:10043C000C946003672F782F8827B85F39F0B93F89
:10044C00CCF3869577956795B395D9F73EF490954F
:0E045C008095709561957F4F8F4F9F4F08954B
:10046A0057FD9058440F551F59F05F3F71F047955B
:10047A00880F97FB991F61F09F3F79F08795089540
:10048A00121613061406551FF2CF4695F1DF08C05F
:10049A00161617061806991FF1CF8695710561057C
:0404AA000894089515
:1004AE00CF93DF93CDB7DEB72B970FB6F894DEBFA1
:1004BE000FBECDBF4AE0BE016F5F7F4F0E9440036B
:1004CE00CE0101960E941B032B960FB6F894DEBF49
:0A04DE000FBECDBFDF91CF9108954E
:1004E800CF93C82F61E081E00E94D2018BB38F7057
:1004F8009C2F907F892B8BBB0E940C038BB3282FDA
:100508002F7030E1C39FC0011124822B8BBB0E9446
:060518000C03CF910895D1
:10051E00CF93C82F61E081E00E9466018BB38F708C
:10052E009C2F907F892B8BBB0E940C038BB3282FA3
:10053E002F7030E1C39FC0011124822B8BBB0E9410
:06054E000C03CF9108959B
:10055400BB27FB015527AA27880F991FAA1FA41799
:1005640010F0A41B83955051B9F7A05DAA3308F08D
:10057400A95DA193009779F7B111B1931192CB01C1
:040584000C94FC02D5
:10058800813049F028F0823061F0833039F00895E5
:100598008FEF8ABB08958FEF87BB08958FEF81BBDC
:0805A80008958FEF84BB089554
:1005B000CF93DF93D62FC42F0E944B038D2F0E9421
:1005C0002A038C2F0E9452030E948C030E948803EE
:0605D000DF91CF910895B8
:1005D600092E0394000C11F4882352F0BB0F40F44B
:1005E600BF2B11F460FF04C06F5F7F4F8F4F9F4F8B
:0205F600089566
:1005F800DC01FC01672F71917723E1F7329704C082
:100608007C916D9370836291AE17BF07C8F308950C
:1006180063E081E00E94D2018FE39CE90197F1F742
:0E06280000C0000063E081E00E9466010895BA
:10063600CF93DF93EC018881882331F021960E94C5
:0E064600740289918111FBCFDF91CF9108954D
:1006540097B19F7397B927B130E4839FC0011124E8
:06066400822B87B9089506
:10066A000E942A0147E061E081E00E94D802789462
:06067A000E948A03FDCF7F
:10068000BB274A3031F4992322F4BDE2909581953D
:060690009F4F0C94AB0229
:0E06960097B1907E97B997B1892B87B90895D7
:0E06A40096B1987F96B996B1892B86B90895C4
:0E06B2000E9406026894B1110C946103089531
:0E06C000E894BB2766277727CB0197F90895AA
:0E06CE0000240A941616170618060906089549
:0E06DC0000240A94121613061406050608954B
:0C06EA0097F99F6780E870E060E00895D9
:0806F60081E00E948F020895CB
:0806FE000E9436000C94EB028F
:060706009FEF80EC089556
:04070C000C94000049
:04071000379A089577
:04071400369A089574
:04071800339A089573
:00000001FF
