:100000000C942A000C941E020C941E020C941E02E6
:100010000C941E020C941E020C941E020C941E02E0
:100020000C941E020C941E020C941E020C941E02D0
:100030000C941E020C941E020C941E020C941E02C0
:100040000C941E020C941E020C941E020C941E02B0
:100050000C941E0211241FBECFE5D8E0DEBFCDBF39
:0C0060000E940E010C943400F894FFCFB5
:10006C00813091F028F0823039F18330C9F0089555
:10007C002AB381E090E002C0880F991F6A95E2F7DD
:10008C00809582238ABB089527B381E090E002C05B
:10009C00880F991F6A95E2F78095822387BB089594
:1000AC0021B381E090E002C0880F991F6A95E2F7B6
:1000BC008095822381BB089524B381E090E002C037
:1000CC00880F991F6A95E2F78095822384BB089567
:1000DC00813091F028F08230D9F0833029F10895E5
:1000EC002BB381E090E002C0880F991F6A95E2F76C
:1000FC00809582238BBB089528B381E090E002C0E9
:10010C00880F991F6A95E2F78095822388BB089522
:10011C0025B381E090E002C0880F991F6A95E2F741
:10012C008095822385BB089522B381E090E002C0C4
:10013C00880F991F6A95E2F78095822382BB0895F8
:10014C00813089F028F08230C9F0833011F10895A4
:10015C002AB381E090E002C0880F991F6A95E2F7FC
:10016C00822B8ABB089527B381E090E002C0880FF0
:10017C00991F6A95E2F7822B87BB089521B381E022
:10018C0090E002C0880F991F6A95E2F7822B81BB21
:10019C00089524B381E090E002C0880F991F6A95FE
:0801AC00E2F7822B84BB0895E9
:1001B400813089F028F08230C9F0833011F108953C
:1001C4002BB381E090E002C0880F991F6A95E2F793
:1001D400822B8BBB089528B381E090E002C0880F86
:1001E400991F6A95E2F7822B88BB089525B381E0B5
:1001F40090E002C0880F991F6A95E2F7822B85BBB5
:10020400089522B381E090E002C0880F991F6A9597
:08021400E2F7822B82BB089582
:10021C000E94FD012FEF89E698E12150804090402B
:10022C00E1F700C0000080E00E94D901882321F092
:10023C0082E00E946C0103C082E00E94930186E080
:10024C000E94D901882321F087E00E946C0103C031
:10025C0087E00E94930182E00E94D901882321F05B
:10026C0083E00E946C01DFCF83E00E949301DBCF1F
:10027C00813079F028F08230A9F08330E1F024C08D
:10028C0089B390E002C0959587956A95E2F78170E5
:10029C00089586B390E002C0959587956A95E2F72C
:1002AC008170089583B390E002C0959587956A9507
:1002BC00E2F78170089580B390E002C09595879520
:0C02CC006A95E2F78170089580E00895C3
:1002D800833099F018F4823031F00895873041F076
:1002E8008A3081F0089562E082E00E94DA00089581
:1002F80067E082E00E94DA00089563E083E00E94EC
:10030800DA00089562E082E00E94DA0067E082E0A5
:0E0318000E94DA0063E083E00E94DA0008959C
:10032600833099F018F4823031F00895873041F027
:100336008A3081F0089562E082E00E946E0008959E
:1003460067E082E00E946E00089563E083E00E9409
:100356006E00089562E082E00E946E0067E082E02F
:0E0366000E946E0063E083E00E946E00089526
:1003740062E082E00E94A6002FEF80E792E0215025
:1003840080409040E1F700C0000067E082E00E94F6
:10039400A60063E083E00E94A60082E00E9493012D
:0E03A40087E00E94930183E00E949301089578
:1003B200823071F0863039F081110FC060E081E047
:1003C2000E943E01089566E083E00E943E01089586
:0E03D20062E083E00E943E01089580E00895FD
:1003E00060E081E00E94360066E083E00E94360013
:0A03F00062E083E00E9436000895E9
:1003FA000E94F0010E94BA010E9406020E940D02A8
:02040A00089553
:0E040C0063E080E00E94A6000E9414020895A2
:0E041A0062E080E00E94A6000E941902089590
:0A04280063E080E00E946E0008957A
:0A04320062E080E00E946E00089571
:04043C000C9400001C
:00000001FF
