:100000000C942A000C945D000C945D000C945D002F
:100010000C945D000C945D000C945D000C945D00EC
:100020000C945D000C945D000C945D000C945D00DC
:100030000C945D000C945D000C945D000C945D00CC
:100040000C945D000C945D000C945D000C945D00BC
:100050000C945D0011241FBECFE5D8E0DEBFCDBFFC
:0C0060000E9436000C943400F894FFCF8E
:10006C008FEF8ABB81E08BBB80E090E061E050E0D9
:10007C0040E030E02FEF79E6E8E121507040E040BD
:10008C00E1F700C00000009721F42BB3220F2BBB2B
:10009C0003C02BB326952BBB2BB3203811F4862F22
:0E00AC00952F2BB3213031F7842F932FE3CF04
:0400BA000C940000A2
:00000001FF
