:100000000C942A000C941F010C941F010C941F01E6
:100010000C941F010C941F010C941F010C941F01E0
:100020000C941F010C941F010C941F010C941F01D0
:100030000C941F010C941F010C941F010C941F01C0
:100040000C941F010C941F010C941F010C941F01B0
:100050000C941F0111241FBECFE5D8E0DEBFCDBF39
:0C0060000E94D6000C943400F894FFCFEE
:10006C00813091F028F08230D9F0833029F1089555
:10007C002BB381E090E002C0880F991F6A95E2F7DC
:10008C00809582238BBB089528B381E090E002C059
:10009C00880F991F6A95E2F78095822388BB089593
:1000AC0025B381E090E002C0880F991F6A95E2F7B2
:1000BC008095822385BB089522B381E090E002C035
:1000CC00880F991F6A95E2F78095822382BB089569
:1000DC00813089F028F08230C9F0833011F1089515
:1000EC002AB381E090E002C0880F991F6A95E2F76D
:1000FC00822B8ABB089527B381E090E002C0880F61
:10010C00991F6A95E2F7822B87BB089524B381E08F
:10011C0090E002C0880F991F6A95E2F7822B84BB8E
:10012C00089521B381E090E002C0880F991F6A9571
:08013C00E2F7822B81BB08955C
:10014400813089F028F08230C9F0833011F10895AC
:100154002BB381E090E002C0880F991F6A95E2F703
:10016400822B8BBB089528B381E090E002C0880FF6
:10017400991F6A95E2F7822B88BB089525B381E025
:1001840090E002C0880F991F6A95E2F7822B85BB25
:10019400089522B381E090E002C0880F991F6A9508
:0801A400E2F7822B82BB0895F3
:1001AC0060E081E00E946E0061E081E00E946E00E0
:1001BC0060E081E00E94A20061E081E00E94A20068
:1001CC0060E081E00E940C0180E00E94F70081E475
:1001DC000E941B0181E00E94F70082E40E941B0137
:0201EC00F3CF4F
:1001EE00811109C061E081E00E94A20060E081E01F
:1001FE000E9436000895813039F460E00E94A2001A
:0A020E0061E081E00E9436000895CF
:10021800882351F087B3806B87BB8DB180658DB91A
:0E0228008DB183608DB90895BE9A6E9A0895C7
:080236008FB9779BFECF0895FC
:04023E000C9400001C
:00000001FF
